:020000040800F2
:100000004807002029020008711A0008A7170008F5
:100010006D1A00081F040008E11C00080000000021
:100020000000000000000000000000000B1B0008A2
:100030002304000800000000751A00080D1B0008CA
:10004000430200084302000843020008430200087C
:1000500043020008771A0008430200084302000820
:10006000430200084302000843020008430200085C
:10007000430200084302000843020008430200084C
:10008000430200084302000843020008430200083C
:10009000430200084302000843020008430200082C
:1000A00043020008E11B0008430200084302000865
:1000B000430200084302000843020008430200080C
:1000C00043020008430200084302000843020008FC
:1000D00043020008430200084302000843020008EC
:1000E00025040008430200084302000843020008F8
:1000F00043020008430200084302000843020008CC
:1001000043020008430200084302000843020008BB
:100110004302000843020008F11B000843020008E4
:10012000430200084302000843020008430200089B
:10013000430200084302000843020008430200088B
:10014000430200084302000843020008430200087B
:10015000430200084302000843020008430200086B
:10016000430200084302000843020008430200085B
:100170004302000843020008430200080000000098
:10018000430200084302000800F002F800F03CF8C7
:100190000AA090E8000C82448344AAF10107DA45E2
:1001A00001D100F031F8AFF2090EBAE80F0013F0F8
:1001B000010F18BFFB1A43F001031847C41B0000CE
:1001C000E41B0000103A24BF78C878C1FAD852075F
:1001D00024BF30C830C144BF04680C6070470000C1
:1001E0000023002400250026103A28BF78C1FBD840
:1001F000520728BF30C148BF0B6070471FB501F0E0
:10020000ADFD1FBD10B510BD00F0CFF81146FFF7D2
:10021000F5FF01F083FD00F0EDF803B4FFF7F2FF06
:1002200003BC00F0F5F80000094880470948004782
:10023000FEE7FEE7FEE7FEE7FEE7FEE7FEE7FEE796
:10024000FEE7FEE704480549054A064B70470000F3
:10025000CD1B000889010008480100204807002044
:10026000480300204803002053EA020C00F0698094
:100270002DE9F04B4FF00006002B1FBFB3FA83F5BA
:1002800003FA05F424FA05F65E4012BF1643B2FAEB
:1002900082F502FA05F4C5F120051EBF22FA05FC1D
:1002A00044EA0C04203556EA044C4FEA144418BFC3
:1002B000641C4FF000084FF00009904271EB030CF2
:1002C00039D3002919BFB1FA81F701FA07F6B0FA5C
:1002D00080F700FA07F6C7F120071EBF20FA07FCD7
:1002E00046EA0C062037B6FBF4FCA7EB0507103FE7
:1002F00007F01F0BCBF120060CFA0BFB2CFA06F6CD
:1003000044BFB3460026202FA4BF5E464FF0000B2B
:100310005BEA060C08BF4FF0010B19EB0B09ABFBB6
:10032000027C48EB0608C01B06FB02CC0BFB03CC8F
:1003300071EB0C01C1E70B46024641464846BDE859
:10034000F08B13B54FF000004FF00001AFF30080C9
:10035000BDE81C4070474FF0000200B513469446BC
:100360009646203922BFA0E80C50A0E80C50B1F10D
:100370002001BFF4F7AF090728BFA0E80C5048BF21
:100380000CC05DF804EB890028BF40F8042B08BFBF
:10039000704748BF20F8022B11F0804F18BF00F8BB
:1003A000012B7047704770477047754600F02CF876
:1003B000AE4605006946534620F00700854618B052
:1003C00020B5FFF73FFFBDE820404FF000064FF09B
:1003D00000074FF000084FF0000B21F00701AC467A
:1003E000ACE8C009ACE8C009ACE8C009ACE8C00999
:1003F0008D46704710B50446AFF300802046BDE837
:100400001040FFF70ABF000000487047E8000020D6
:1004100001491820ABBEFEE726000200704700BF6E
:10042000FEE7704710B54FF4006000F01FF810BDF4
:1004300072B600BFFEE7000010B5044601F0B6F941
:100440004FF40061074800F019F928B9012211465C
:10045000054800F01BF904E000220121024800F0E9
:1004600015F910BD001802400008024010B50446FE
:1004700004480068204020B1024804602046FFF78D
:10048000DBFF10BD143C0140F8B502460B460025C9
:10049000002400200021D6E0012606FA01F51E689E
:1004A00006EA0504AC4274D11E7906F00306012E5B
:1004B00004D01E7906F00306022E13D190684F0077
:1004C0000326BE40B0434F00DE68BE40304390601C
:1004D000506801268E40B0431E79C6F300168E4048
:1004E000304350601E7906F00306032E09D0D06811
:1004F0004F000326BE40B0434F009E68BE403043CD
:10050000D0601E7906F00306022E13D1CF0802F147
:10051000200656F827004E07F70E0F26BE40B043C0
:100520004F07FF0E1E69BE403043CF0802F1200680
:1005300046F8270010684F000326BE40B0431E79DE
:1005400006F003064F00BE40304310605E6806F4BC
:100550004036002E76D000BF002600963C4E36680E
:1005600046F480463A4F3E603E46366806F4804682
:10057000009600BF00BF374E8F0856F827008E0741
:10058000370F0F26BE40B043334EB24202D1002691
:1005900024E057E0314EB24201D101261EE0304E38
:1005A000B24201D1022619E02E4EB24201D10326F9
:1005B00014E02D4EB24201D104260FE02B4EB24280
:1005C00001D105260AE02A4EB24201D1062605E0F5
:1005D000284EB24201D1072600E008268F073F0FC0
:1005E000BE4030431B4E8F0846F82700224E30682D
:1005F000A0435E6806F4801606B120431E4E3060AC
:10060000361D3068A0435E6806F4001606B120432C
:10061000194E361D3060184E361F3068A0435E6894
:1006200006F4003606B12043134E361F3060361FE5
:100630003068A0435E6806F4803606B120430E4E53
:10064000083E3060491C1029FFF426AFF8BD0000B9
:1006500044380240083801400000024000040240D3
:1006600000080240000C024000100240001402404A
:1006700000180240001C0240083C01400246136979
:100680000B400BB1012000E0002070470AB18161EE
:1006900001E00B0483617047014800687047000067
:1006A0000000002003480068034909780844014914
:1006B00008607047000000200800002010B50D48B9
:1006C000006840F400700B4908600846006840F478
:1006D000806008600846006840F48070086003206D
:1006E00000F0AEF80F2000F007F800F02BF8002023
:1006F00010BD0000003C024070B504460E48007872
:100700004FF47A71B1FBF0F00C490968B1FBF0F5D8
:10071000284600F04BFE08B1012070BD102C07D216
:1007200000222146501E00F04DF80548046001E00B
:100730000120F2E70020F0E7080000200C00002074
:100740000400002008B500BF002000901248006897
:1007500040F48040104908600846006800F480407A
:10076000009000BF00BF00BF00200090081F00687D
:1007700040F08050091F08600846006800F0805073
:10078000009000BF00BF00220221052000F01AF8EF
:10079000052000F003F808BD443802400146084631
:1007A00000280DDB00BF00BF00F01F0301229A40AC
:1007B00043099B0003F1E023C3F8002100BF00BF01
:1007C00000BF70472DE9F05F80460D4616460027B2
:1007D00001F088FA074639462A46334601F00700F9
:1007E000C0F1070ABAF1040F02D94FF0040A01E080
:1007F000C0F1070AD14600F1040ABAF1070F02D28C
:100800004FF0000A01E0A0F1030AD4464FF0010ABC
:100810000AFA09FAAAF1010A0AEA020A0AFA0CFA21
:100820004FF0010B0BFA0CFBABF1010B0BEA030BC6
:100830004AEA0B042146404601F05CFABDE8F09F0D
:1008400000BF00F00702064B19684FF6FF0319407E
:10085000044B0B4343EA0221014B196000BF704770
:100860000CED00E00000FA05F8B50446002500266E
:10087000207800F0010020B9207800F0040004285E
:100880002FD100205B498866FFF706FF054606E08A
:10089000FFF702FF401B022801D90320F8BD56488C
:1008A0000068C0F3C0600028F2D160688101207A3E
:1008B00041EA007050498431086001204D49886642
:1008C000FFF7EAFE054606E0FFF7E6FE401B0228BA
:1008D00001D90320E2E748480068C0F3C06000285F
:1008E000F2D0207800F0020002287DD100BF002065
:1008F000009041484030006840F080503E4940310F
:1009000008600846006800F08050009000BF00BFFB
:100910003A48006840F4807038490860FFF7BCFE30
:10092000054606E0FFF7B8FE401B022801D9032068
:10093000B4E73248006800F480700028F2D02E48F6
:100940007030006800F440764EB3A08900F4407027
:10095000B04224D028487030006820F4407601204E
:10096000274908600020086023487030066000684E
:1009700000F0010098B1FFF78FFE054608E0FFF791
:100980008BFE401B41F28831884201D9032085E764
:10099000194870300068C0F340000028EFD000BF55
:1009A000A08900F44070B0F5407F0CD112480830A7
:1009B000006820F4F810134AE168114008430E491A
:1009C0000831086007E00C480830006820F4F8108F
:1009D000094908310860084870300068A189C1F3EE
:1009E0000B010843044900E002E07031086000BFD9
:1009F000002053E7000047420038024000700040EA
:100A0000400E4742FFFCFF0F70B504460D460CB97F
:100A1000012070BD5848006800F00700A84209D2C4
:100A200055490D700846006800F00700A84201D043
:100A30000120EEE7207800F0020002281DD1207886
:100A400000F00400042805D14C48006840F4E05050
:100A50004A490860207800F00800082805D1474876
:100A6000006840F46040454908604448006820F050
:100A7000F000A168084341490860207800F00100B7
:100A8000A8B36068012807D13C4808380068C0F363
:100A90004040B8B90120BCE76068022802D0606815
:100AA000032807D1354808380068C0F3406048B9CA
:100AB0000120AEE7314808380068C0F3400008B9AB
:100AC0000120A6E72D48006820F003006168084374
:100AD0002A490860FFF7E0FD064609E0FFF7DCFD64
:100AE000801B41F28831884202D9032091E707E058
:100AF0002248006800F00C006168B0EB810FEDD176
:100B00001D48006800F00700A84209D91A490D7075
:100B10000846006800F00700A84201D0012078E7ED
:100B2000207800F00400042807D11448006820F45D
:100B3000E050E168084311490860207800F008009F
:100B4000082808D10D48006820F46040216940EA77
:100B5000C1000A49086000F019F808490968C1F3A2
:100B60000311074A515CC8400649086006480068FE
:100B7000FFF7C2FD00204CE7003C0240083802406D
:100B8000661D00080C000020040000202DE9F0473D
:100B9000002400250026A1462548006800F00C002E
:100BA00020B1042805D008283AD105E0DFF8849068
:100BB00039E0DFF8849036E01D48001F006800F03F
:100BC0003F041B48001F006800F4800078B11A48F9
:100BD0001749091F0968C1F38811A0FB017001467C
:100BE000224600233846FFF73FFB05460EE011483A
:100BF0000F49091F0968C1F38811A0FB0170014664
:100C0000224600233846FFF72FFB05460848001F01
:100C10000068C0F30140401C4600B5FBF6F902E055
:100C2000DFF8109000BF00BF4846BDE8F087000025
:100C3000083802400024F40000127A00F8B5044697
:100C40000CB90120F8BD207800F00100002874D014
:100C5000F948006800F00C0004280DD0F648006840
:100C600000F00C00082813D1F348001F006800F4BE
:100C70008000B0F5800F0BD1EF4808380068C0F352
:100C80004040002859D06068002856D10120D9E79B
:100C900000BF6068B0F5803F08D1E74808380068B9
:100CA00040F48030E449083908601EE06068B0F51F
:100CB000A02F0DD1E0480838006840F48020DE49BC
:100CC000083908600846006840F4803008600CE08D
:100CD000D9480838006820F48030D74908390860BE
:100CE0000846006820F48020086000BF606890B16A
:100CF000FFF7D2FC054606E0FFF7CEFC401B642858
:100D000001D903209EE7CC4808380068C0F3404072
:100D10000028F1D011E0FFF7BFFC054606E0FFF721
:100D2000BBFC401B642801D903208BE7C24808386C
:100D30000068C0F340400028F1D1207800F00200A4
:100D400002285FD1BC48006800F00C0058B1BA48D6
:100D5000006800F00C0008281CD1B748001F00688C
:100D600000F48000B0B9B44808380068C0F340000F
:100D700020B1E068012801D0012063E7AE480838BF
:100D8000006820F0F800216940EAC100AA4908394A
:100D9000086037E0E06800B30120A8490860FFF769
:100DA0007BFC054606E0FFF777FC401B022801D9D3
:100DB000032047E7A04808380068C0F34000002837
:100DC000F1D09D480838006820F0F800216940EA19
:100DD000C10099490839086014E00020974908606B
:100DE000FFF75AFC054606E0FFF756FC401B0228B9
:100DF00001D9032026E7904808380068C0F3400076
:100E00000028F1D1207800F0080008282CD1606972
:100E1000A8B101208A490860FFF73EFC054606E0BC
:100E2000FFF73AFC401B022801D903200AE7824859
:100E30006C300068C0F340000028F1D014E00020BE
:100E40007F490860FFF728FC054606E0FFF724FC11
:100E5000401B022801D90320F4E677486C30006873
:100E6000C0F340000028F1D1207800F004000428ED
:100E700070D1002770483830006800F0805090B979
:100E800000BF002000906C483830006840F080506F
:100E90006949383108600846006800F080500090C9
:100EA00000BF00BF01276748006800F48070B0B938
:100EB0006448006840F4807062490860FFF7ECFB0A
:100EC000054606E0FFF7E8FB401B022801D9032096
:100ED000B8E65C48006800F480700028F2D000BFDB
:100EE000A068012808D154486830006840F001002B
:100EF0005149683108601DE0A06805280DD14E48B1
:100F00006830006840F004004B49683108600846CA
:100F1000006840F0010008600CE047486830006855
:100F200020F001004449683108600846006820F05C
:100F30000400086000BFA068A8B1FFF7ADFB05463C
:100F400009E0FFF7A9FB401B41F28831884202D932
:100F5000032077E626E0384868300068C0F3400098
:100F60000028EED013E0FFF797FB054608E0FFF7F7
:100F700093FB401B41F28831884201D9032061E68E
:100F80002D4868300068C0F340000028EFD1012FE1
:100F900007D129483830006820F080502649383180
:100FA000086000BFA069002845D02348006800F011
:100FB0000C0008285DD0A069022845D100201F49F7
:100FC0000866FFF769FB054606E0FFF765FB401B77
:100FD000022801D9032035E6174808380068C0F315
:100FE00040600028F1D1D4E907010843616A40EA72
:100FF00081110122A06AC2EB500041EA00412C207D
:10100000005D41EA00600C49091F086001200B499E
:101010000866FFF741FB054606E0FFF73DFB401B76
:10102000022801D903200DE6034808380068C0F300
:1010300040600028F1D049E00838024000004742F3
:10104000800E474200700040002021490866FFF7EB
:1010500023FB054606E0FFF71FFB401B022801D9D2
:101060000320EFE51B480068C0F340600028F2D180
:101070002CE0A069012800D1E4E51648001D0668AF
:10108000A069012820D006F48001E06981421BD1CB
:1010900006F03F01206A814216D147F6C070304009
:1010A000616AB0EB811F0FD106F440310122A06AC2
:1010B000C2EB5000B1EB004F06D106F070612C205E
:1010C000005DB1EB006F01D00120BBE50020B9E568
:1010D000000047420038024070B504460CB90120B8
:1010E00070BD607F20B900202077204600F04EF8C8
:1010F000022060772068C068C0F3001000283CD14F
:1011000000BFCA202168486253202168486200BF9E
:10111000204600F0BEFC0546EDB9206880681A49FB
:101120000840216888602169606808436169084354
:10113000216889680843216888602168E06808613F
:1011400020680169208941EA004021680861204641
:1011500000F0C4FC05465DB92068006C20F48020D6
:10116000216808642068006CA1690843216808644C
:1011700000BFFF202168486200E000250DB9012072
:1011800060772846ACE70000BFFF8FFF1FB504461D
:101190000020009001900290039009492068884245
:1011A0000CD102200090C00103906846FFF75CFB61
:1011B00008B1FFF73DF90120024908601FBD00009A
:1011C000002800403C0E47422DE9F04105460C4600
:1011D00017464FF0000800BF287F012802D10220E7
:1011E000BDE8F0810120287700BF022068774FB961
:1011F000607800F01000102804D1607800F0EF0053
:101200000A30607087B9E07800F036FC030460783B
:1012100000F032FC43EA0023A07800F02DFC0343E9
:10122000207843EA403809E0E0780004617840EA39
:101230000120A1780843217840EA413800BFCA2044
:101240002968486253202968486200BF284600F098
:1012500020FC064646B90B4808EA000029684860A9
:10126000284600F03BFC06460EB90120687700BF17
:10127000FF202968486200BF00BF0020287700BF18
:101280003046ADE73FFFFF002DE9F04104460D4633
:1012900017464FF0000800BF207F012802D102202E
:1012A000BDE8F0810120207700BF02206077CFB930
:1012B0002068806800F0400000B102E00020E87083
:1012C00000BF287800F0D8FB0304687800F0D4FB56
:1012D00043EA0023A87800F0CFFB0343E87843EA11
:1012E000805812E02068806800F0400000B102E001
:1012F0000020E87000BF28780004697840EA0120E7
:10130000A9780843E97840EA815800BFCA202168DB
:10131000486253202168486200BF204600F0B9FBB4
:101320000646B6B9124808EA00002168086020683D
:10133000806820F4802021688860D5E90301084393
:1013400021688968084321688860204600F0C6FB50
:1013500006460EB90120607700BFFF202168486271
:1013600000BF00BF0020207700BF304698E7000094
:101370007F7F7F0070B5044600250B482168C86058
:10138000FFF78AF9054607E0FFF786F9401BB0F53D
:101390007A7F01D9032070BD2068C06800F020006A
:1013A0000028F1D00020F6E75F7F010070B5044609
:1013B0002546681EB0F1807F01D301200FE0681E32
:1013C0004FF0E02148610F214FF0FF3000F092FC18
:1013D00000204FF0E021886107200861002070BDE7
:1013E0007047704730B502460B4600BF92F83C008C
:1013F000012801D1022030BD012082F83C0000BF4D
:10140000022082F83D00106844681068816824F06A
:1014100070041868044310684460184D1068A842AE
:101420001BD01068B0F1804F17D0154D1068A8423E
:1014300013D0144D1068A8420FD0134D1068A84265
:101440000BD0124D1068A84207D0114D1068A84269
:1014500003D0104D1068A84205D121F080015868D2
:10146000014310688160012082F83D0000BF002028
:1014700082F83C0000BF00BFBDE700000000014053
:101480000004004000080040000C0040000401403F
:10149000004001400018004010B504460CB901207E
:1014A00010BD94F83D0028B9002084F83C00204687
:1014B00000F026F8022084F83D00211D206800F08D
:1014C0009FFB012084F8460000BF84F83E00012104
:1014D0003F200155402001554120015500BF00BF6C
:1014E000012084F842004320015544200155452045
:1014F000015500BF012084F83D000020D0E7000026
:1015000038B504461D492068884218D100BF002024
:1015100000901B48006840F0100019490860084618
:10152000006800F01000009000BF00BF00220421FE
:101530003620FFF747F93620FFF730F91DE0114953
:101540002068884219D100BF002000900C48001D7F
:10155000006840F400300A49091D08600846006828
:1015600000F40030009000BF00BF002201211920CC
:10157000FFF728F91920FFF711F938BD00100040D6
:101580004038024000440140014691F83D000128E6
:1015900001D001207047022081F83D000868C06832
:1015A00040F001000B68D8601A4B086898421BD0C5
:1015B0000868B0F1804F17D0174B0868984213D0D5
:1015C000164B086898420FD0154B086898420BD00C
:1015D000144B0868984207D0134B0868984203D010
:1015E000124B086898420CD10868806800F0070226
:1015F000062A0CD00868006840F001000B681860EB
:1016000005E00868006840F001000B6818600020E1
:10161000C0E7000000000140000400400008004056
:10162000000C004000040140004001400018004050
:10163000704770B504462068C5682068066906F0E2
:101640000200022819D105F00200022815D1401F1E
:1016500021680861012020772068806900F003007C
:1016600018B12046FFF7E4FF05E0204600F097F8A8
:10167000204600F095F80020207706F004000428AA
:1016800019D105F00400042815D1C0432168086170
:10169000022020772068806900F4407018B120464D
:1016A000FFF7C6FF05E0204600F079F8204600F07D
:1016B00077F80020207706F00800082819D105F0F7
:1016C0000800082815D1C04321680861042020774C
:1016D0002068C06900F0030018B12046FFF7A8FF9A
:1016E00005E0204600F05BF8204600F059F80020A5
:1016F000207706F01000102819D105F010001028EE
:1017000015D1C04321680861082020772068C0698E
:1017100000F4407018B12046FFF78AFF05E020462C
:1017200000F03DF8204600F03BF80020207706F05E
:10173000010048B105F0010030B16FF001002168EF
:101740000861204600F02DF806F08000802809D1BD
:1017500005F08000802805D1C0432168086120463B
:10176000FFF73EFE06F04000402809D105F040009A
:10177000402805D1C04321680861204600F012F8D6
:1017800006F02000202809D105F02000202805D1EE
:10179000C043216808612046FFF723FE70BD7047F3
:1017A00070477047704700BFFEE7000010B5002289
:1017B00001211B48FEF76AFF002202211848FEF7AC
:1017C00065FF002204211648FEF760FF0022082171
:1017D0001348FEF75BFF002210211148FEF756FF69
:1017E000002220210E48FEF751FF002240210C4824
:1017F000FEF74CFF002280210948FEF747FF012237
:1018000040210848FEF742FF012280210548FEF7EB
:101810003DFF012211020348FEF738FF10BD000012
:10182000000802400014024000B587B0142102A84D
:10183000FEF791FD00BF002001904648006840F08F
:101840000400444908600846006800F00400019064
:1018500000BF00BF00BF002001900846006840F0B4
:10186000200008600846006800F02000019000BFDA
:1018700000BF00BF002001900846006840F08000D3
:1018800008600846006800F08000019000BF00BFBB
:1018900000BF002001900846006840F00100086089
:1018A0000846006800F00100019000BF00BF00BFC3
:1018B000002001900846006840F04000086008469B
:1018C000006800F04000019000BF00BF01224FF40B
:1018D00070712148FEF7DAFE0122FF211F48FEF752
:1018E000D5FE4FF470700290012003900490002008
:1018F000059002A91848FEF7C7FDFF2002900120BD
:101900000390022004900020059002A91348FEF7DE
:10191000BBFD4FF4006002904FF44410039001208F
:10192000049002A90E48FEF7AFFD4FF4E04002908C
:10193000002003900120049002A90948FEF7A4FDAD
:10194000002211462820FEF73DFF2820FEF726FF43
:1019500007B000BD303802400014024000080240C9
:101960000018024000B587B0142102A8FEF7F3FC6E
:10197000002001901B481C490860002048607F211E
:1019800019488160FF21C1600021016141618161CD
:10199000FFF7A2FB08B1FEF74BFD00208DF8080011
:1019A0008DF809008DF80A0005900690002202A922
:1019B0000D48FFF769FC08B1FEF73AFD01208DF8EC
:1019C00004008DF805008DF8060000208DF8070052
:1019D000002201A90448FFF7F7FB08B1FEF728FD34
:1019E00007B000BD002800401000002010B50A48D4
:1019F0000A490860A720486000210848816040F239
:101A0000E731C160002101618161FFF745FD08B147
:101A1000FEF70EFD10BD00000044014078000020DC
:101A20001CB50020009001900E480F49086053201B
:101A3000486000210C48816040F2E731C16080219C
:101A40008161FFF729FD08B1FEF7F2FC002000904C
:101A5000019069460448FFF7C5FC08B1FEF7E8FCB1
:101A60001CBD0000001000403000002000BFFEE759
:101A700000BFFEE7704770470146002203E0521C9A
:101A8000A1F10A00C1B20A29F9D2100741EA106097
:101A9000704770B50446002600252068C06800F035
:101AA0004000C8B92068C06840F080002168C86064
:101AB000FEF7F2FD064608E0FEF7EEFD801BB0F5EE
:101AC0007A7F02D90420607701252068C06800F081
:101AD000400008B9012DEFD1284670BD70B504460D
:101AE00000252068C06820F080002168C860206858
:101AF000806800F0200030B92046FFF73BFC10B1B1
:101B0000042060770125284670BD704710B5FEF7A8
:101B1000C9FD10BD00B593B0302107A8FEF71BFC2E
:101B2000142102A8FEF717FC00BF002001902548F1
:101B3000006840F08050234908600846006800F0C3
:101B40008050019000BF00BF00BF002001901E48E0
:101B5000006840F480401C4908600846006800F4B2
:101B60008040019000BF00BF052007904FF48030F7
:101B700008900120099002200D9041050E9104214A
:101B80000F91A8211091022111910421129107A80F
:101B9000FFF754F808B1FEF74BFC0F20029002202B
:101BA0000390002004904FF4A05005904FF4805013
:101BB0000690052102A8FEF727FF08B1FEF738FCC2
:101BC00013B000BD40380240007000400348006878
:101BD00040F47000014908607047000088ED00E0A3
:101BE00010B50248FFF725FD10BD00007800002069
:101BF00010B50248FFF71DFD10BD000030000020A9
:101C000010B502682B4B98420ED0B0F1804F0BD02C
:101C1000294B984208D0294B984205D0284B98422E
:101C200002D0284B984203D122F070024B681A432D
:101C3000204B984220D0B0F1804F1DD01E4B9842CF
:101C40001AD01E4B984217D01D4B984214D01D4BF2
:101C5000984211D01C4B98420ED01C4B98420BD08E
:101C60001B4B984208D01B4B984205D01A4B984208
:101C700002D01A4B984203D122F44072CB681A4327
:101C800022F080034C6943EA04028B68C3620B684C
:101C90008362084B984202D00A4B984201D10B69EB
:101CA0000363036843F0040303600123436102609C
:101CB00010BD00000000014000040040000800408A
:101CC000000C00400004014000400140004401407D
:101CD0000048014000180040001C00400020004067
:101CE00000BFFEE702480068C0F302207047000012
:101CF0000CED00E010B5002804DB0A07130E054ABE
:101D0000135406E00A07140E034A00F00F031B1FCA
:101D1000D45410BD00E400E018ED00E0FEF7CEFC66
:101D2000FFF7F8FEFFF780FDFFF71CFEFFF778FED8
:101D3000FFF75CFE0648FFF7CFF9FFF737FD0548D0
:101D4000FFF722FC0448FFF71FFC00BFFEE700007E
:101D50001000002030000020780000204FF040707C
:101D6000E1EE100A704700000000000000000102D0
:101D70000304060708090000000001020304000034
:101D8000A01D00080000002010000000C401000891
:101D9000B01D00081000002038070000E001000816
:101DA0000000000010000000010000000024F4000A
:040000050800018965
:00000001FF
